S01400004C616250535F75436F6E74722E7372656384
S113000010C01FC01EC01DC01CC01BC01AC019C018
S113001018C017C016C015C014C013C012C011C038
S113002010C011241FBECFE5D1E0DEBFCDBF10E06C
S1130030A0E6B0E001C01D92A938B107E1F7BED037
S11300401FC2DECF87B98AE18A95F1F7E6E2F0E0D4
S1130050808180648083808184FFFDCFE6E2F0E0CC
S113006080818061808324B135B1822F932F0895DC
S1130070CF92DF92EF92FF920F931F93EAE3F0E0A7
S113008080818C688083E0E5F0E010828081836069
S11300908083808180628083E3E5F0E01082808148
S11300A081608083E6E2F0E08081806880838081E3
S11300B0866080830BE710E00F2EFAE0CF2EDD245C
S11300C0F02DF801C192D192EE24FF24E394F18241
S11300D0E08280E0B7DFF801929382939187808772
S11300E09587848703E610E0F801C192D192F182EA
S11300F0E08281E0A7DFF801929382939187808761
S11301009587848797838683EBE3F0E08081837F00
S113011080831F910F91FF90EF90DF90CF9008950F
S11301208F3F910518F08FEF90E004C0992314F4E9
S113013080E090E08CBF0895A0E0B0E0BC01CD0168
S113014026E232E040E050E031D12FEF33E040E0EE
S113015050E059D1822F932F08950F931F93FC01E0
S1130160A481B58164857585CD010ED12285338541
S1130170280F391F0281138160857185C8018A1B8C
S11301809B0B02D1280F391F37832683C901B8017D
S113019026D1862F972F60877187B801F5D0281B49
S11301A0390B338722878081918195878487808565
S11301B09185978786871F910F9108952F923F927B
S11301C04F925F926F927F928F929F92AF92BF9263
S11301D0CF92DF92EF92FF920F931F93CF93DF930F
S11301E047DF0F2EF9E7EF2EF0E0FF2EF02D0F2E54
S11301F0FEE06F2E7724F02D6E0C7F1CCBE3D0E055
S1130200CC246894C1F8DD24D39401E610E00F2EC9
S1130210FEE08F2E9924F02D800E911E0F2EFFEFFD
S11302202F2EF0E03F2EF0E04F2EF0E05F2EF02D69
S11302300F2EF3E7AF2EF0E0BF2EF02D80E002DFAB
S1130240F70191838083C70188DFF3018081918165
S113025073DF909378008093770080E0F3DE6CDFA7
S11302609093780080937700209160002130D9F03A
S1130270213020F0223009F03FC027C08937910592
S1130280D8F18B3F910548F4888184608883888104
S1130290877F8883D09260002FC088818C60888398
S11302A0C092600029C08B3F910530F088818C603A
S11302B08883C092600020C08F369105E8F488815D
S11302C0837F88831092600017C0813F9105A0F45A
S11302D08937910548F08881846088838881877F85
S11302E08883D092600008C08F36910528F48881F5
S11302F0837F8883109260008D2DA4DEF8019183A2
S11303008083C8012ADFF40160817181F1E06A3ED3
S11303107F0750F581E067387807E8F080E090E0E7
S113032020EF30E040E050E041D060567B4C81400B
S113033090402CE93FEF4FEF5FEF87D0215F3F4FB5
S11303404F4F5F4F209373003093740040937500B8
S11303505093760014C0209273003092740040923F
S11303607500509276000BC01092730010927400C6
S1130370109275001092760088818F778883F5013A
S113038080819181CDDE5ACF5527002480FF02C0A1
S1130390060E571F660F771F6115710521F096959C
S11303A08795009799F7952F802D0895FF27EE27BD
S11303B0BB27AA2760FF04C0A20FB31FE41FF51FC9
S11303C0220F331F441F551F969587957795679580
S11303D089F70097760771F7CF01BD010895AA1B2D
S11303E0BB1B51E107C0AA1FBB1FA617B70710F01C
S11303F0A61BB70B881F991F5A95A9F7809590954E
S1130400BC01CD010895A1E21A2EAA1BBB1BFD015C
S11304100DC0AA1FBB1FEE1FFF1FA217B307E407DF
S1130420F50720F0A21BB30BE40BF50B661F771F37
S1130430881F991F1A9469F7609570958095909517
S11304409B01AC01BD01CF01089597FB092E052640
S11304500ED057FD04D0D7DF0AD0001C38F45095D5
S11304604095309521953F4F4F4F5F4F0895F6F7D4
S113047090958095709561957F4F8F4F9F4F08950C
S1070480F894FFCF1A
S9030000FC
